{
  "contractName": "Token",
  "abi": [
    {
      "constant": true,
      "inputs": [],
      "name": "totalSupply",
      "outputs": [
        {
          "name": "",
          "type": "uint256"
        }
      ],
      "payable": false,
      "stateMutability": "view",
      "type": "function",
      "signature": "0x18160ddd"
    },
    {
      "inputs": [],
      "payable": false,
      "stateMutability": "nonpayable",
      "type": "constructor",
      "signature": "constructor"
    }
  ],
  "bytecode": "0x6080604052348015600f57600080fd5b50620f42406000819055506098806100286000396000f3fe6080604052600436106039576000357c01000000000000000000000000000000000000000000000000000000009004806318160ddd14603e575b600080fd5b348015604957600080fd5b5060506066565b6040518082815260200191505060405180910390f35b6000548156fea165627a7a7230582006f1e631fade4e631b25303994969fade51796685d1b03e4c49060b9e5c74d430029",
  "source": "pragma solidity >=0.4.21 <0.6.0;\n\ncontract Token {\n  uint256 public totalSupply;\n\n  constructor() public {\n    totalSupply = 1000000; // One million\n  }\n}\n",
  "sourcePath": "/Users/spencerdixon/Ethereum/token_sale/contracts/Token.sol",
  "compiler": {
    "name": "solc",
    "version": "0.5.1+commit.c8a2cb62.Emscripten.clang"
  },
  "schemaVersion": "3.0.3",
  "updatedAt": "2019-03-19T16:30:54.740Z",
  "devdoc": {
    "methods": {}
  },
  "userdoc": {
    "methods": {}
  }
}